{
  "contractName": "UserData",
  "abi": [
    {
      "anonymous": false,
      "inputs": [
        {
          "indexed": true,
          "internalType": "address",
          "name": "user",
          "type": "address"
        },
        {
          "indexed": false,
          "internalType": "string",
          "name": "name",
          "type": "string"
        },
        {
          "indexed": false,
          "internalType": "uint256",
          "name": "score",
          "type": "uint256"
        },
        {
          "indexed": false,
          "internalType": "uint8",
          "name": "rank",
          "type": "uint8"
        }
      ],
      "name": "UserDataUpdated",
      "type": "event"
    },
    {
      "inputs": [
        {
          "internalType": "address",
          "name": "",
          "type": "address"
        }
      ],
      "name": "users",
      "outputs": [
        {
          "internalType": "string",
          "name": "name",
          "type": "string"
        },
        {
          "internalType": "uint256",
          "name": "score",
          "type": "uint256"
        },
        {
          "internalType": "uint8",
          "name": "rank",
          "type": "uint8"
        }
      ],
      "stateMutability": "view",
      "type": "function",
      "constant": true
    },
    {
      "inputs": [
        {
          "internalType": "string",
          "name": "_name",
          "type": "string"
        },
        {
          "internalType": "uint256",
          "name": "_score",
          "type": "uint256"
        },
        {
          "internalType": "uint8",
          "name": "_rank",
          "type": "uint8"
        }
      ],
      "name": "setUserData",
      "outputs": [],
      "stateMutability": "nonpayable",
      "type": "function"
    },
    {
      "inputs": [
        {
          "internalType": "address",
          "name": "_user",
          "type": "address"
        }
      ],
      "name": "getUserData",
      "outputs": [
        {
          "internalType": "string",
          "name": "",
          "type": "string"
        },
        {
          "internalType": "uint256",
          "name": "",
          "type": "uint256"
        },
        {
          "internalType": "uint8",
          "name": "",
          "type": "uint8"
        }
      ],
      "stateMutability": "view",
      "type": "function",
      "constant": true
    }
  ],
  "bytecode": "0x608060405234801561001057600080fd5b50610849806100206000396000f3fe608060405234801561001057600080fd5b50600436106100415760003560e01c8063a87430ba14610046578063ea628fbe14610078578063ffc9896b14610094575b600080fd5b610060600480360381019061005b919061051e565b6100c6565b60405161006f93929190610677565b60405180910390f35b610092600480360381019061008d9190610547565b610185565b005b6100ae60048036038101906100a9919061051e565b6102ca565b6040516100bd93929190610677565b60405180910390f35b60006020528060005260406000206000915090508060000180546100e99061075c565b80601f01602080910402602001604051908101604052809291908181526020018280546101159061075c565b80156101625780601f1061013757610100808354040283529160200191610162565b820191906000526020600020905b81548152906001019060200180831161014557829003601f168201915b5050505050908060010154908060020160009054906101000a900460ff16905083565b604051806060016040528085858080601f016020809104026020016040519081016040528093929190818152602001838380828437600081840152601f19601f8201169050808301925050505050505081526020018381526020018260ff168152506000803373ffffffffffffffffffffffffffffffffffffffff1673ffffffffffffffffffffffffffffffffffffffff16815260200190815260200160002060008201518160000190805190602001906102419291906103f2565b506020820151816001015560408201518160020160006101000a81548160ff021916908360ff1602179055509050503373ffffffffffffffffffffffffffffffffffffffff167f52fd674731b2d2394c9736a3bb91d717cbceb79a7374a155fdd16d9f48603191858585856040516102bc9493929190610637565b60405180910390a250505050565b606060008060008060008673ffffffffffffffffffffffffffffffffffffffff1673ffffffffffffffffffffffffffffffffffffffff16815260200190815260200160002060405180606001604052908160008201805461032a9061075c565b80601f01602080910402602001604051908101604052809291908181526020018280546103569061075c565b80156103a35780601f10610378576101008083540402835291602001916103a3565b820191906000526020600020905b81548152906001019060200180831161038657829003601f168201915b50505050508152602001600182015481526020016002820160009054906101000a900460ff1660ff1660ff16815250509050806000015181602001518260400151935093509350509193909250565b8280546103fe9061075c565b90600052602060002090601f0160209004810192826104205760008555610467565b82601f1061043957805160ff1916838001178555610467565b82800160010185558215610467579182015b8281111561046657825182559160200191906001019061044b565b5b5090506104749190610478565b5090565b5b80821115610491576000816000905550600101610479565b5090565b6000813590506104a4816107ce565b92915050565b60008083601f8401126104bc57600080fd5b8235905067ffffffffffffffff8111156104d557600080fd5b6020830191508360018202830111156104ed57600080fd5b9250929050565b600081359050610503816107e5565b92915050565b600081359050610518816107fc565b92915050565b60006020828403121561053057600080fd5b600061053e84828501610495565b91505092915050565b6000806000806060858703121561055d57600080fd5b600085013567ffffffffffffffff81111561057757600080fd5b610583878288016104aa565b94509450506020610596878288016104f4565b92505060406105a787828801610509565b91505092959194509250565b60006105bf83856106c0565b93506105cc83858461071a565b6105d5836107bd565b840190509392505050565b60006105eb826106b5565b6105f581856106c0565b9350610605818560208601610729565b61060e816107bd565b840191505092915050565b61062281610703565b82525050565b6106318161070d565b82525050565b600060608201905081810360008301526106528186886105b3565b90506106616020830185610619565b61066e6040830184610628565b95945050505050565b6000606082019050818103600083015261069181866105e0565b90506106a06020830185610619565b6106ad6040830184610628565b949350505050565b600081519050919050565b600082825260208201905092915050565b60006106dc826106e3565b9050919050565b600073ffffffffffffffffffffffffffffffffffffffff82169050919050565b6000819050919050565b600060ff82169050919050565b82818337600083830152505050565b60005b8381101561074757808201518184015260208101905061072c565b83811115610756576000848401525b50505050565b6000600282049050600182168061077457607f821691505b602082108114156107885761078761078e565b5b50919050565b7f4e487b7100000000000000000000000000000000000000000000000000000000600052602260045260246000fd5b6000601f19601f8301169050919050565b6107d7816106d1565b81146107e257600080fd5b50565b6107ee81610703565b81146107f957600080fd5b50565b6108058161070d565b811461081057600080fd5b5056fea26469706673582212201ed5eee722bfed320b42cd11bf37cd7484067e73d8dd22e0b264181aaedbba7564736f6c63430008000033",
  "immutableReferences": {},
  "source": "// SPDX-License-Identifier: MIT\npragma solidity ^0.8.0;\n\ncontract UserData {\n    struct User {\n        string name;\n        uint256 score;\n        uint8 rank;\n    }\n\n    mapping(address => User) public users;\n\n    event UserDataUpdated(address indexed user, string name, uint256 score, uint8 rank);\n\n    function setUserData(string calldata _name, uint256 _score, uint8 _rank) external {\n        users[msg.sender] = User(_name, _score, _rank);\n        emit UserDataUpdated(msg.sender, _name, _score, _rank);\n    }\n\n    function getUserData(address _user) external view returns (string memory, uint256, uint8) {\n        User memory user = users[_user];\n        return (user.name, user.score, user.rank);\n    }\n}\n",
  "sourcePath": "/home/himejjad/ft_trans/last/contracts/UserData.sol",
  "compiler": {
    "name": "solc",
    "version": "0.8.0+commit.c7dfd78e.Emscripten.clang"
  },
  "schemaVersion": "3.4.16",
  "updatedAt": "2025-01-01T23:52:24.395Z",
  "networkType": "ethereum",
  "devdoc": {
    "kind": "dev",
    "methods": {},
    "version": 1
  },
  "userdoc": {
    "kind": "user",
    "methods": {},
    "version": 1
  }
}